{
  "contractName": "ChainpointRegistry",
  "abi": [
    {
      "constant": true,
      "inputs": [],
      "name": "name",
      "outputs": [
        {
          "name": "",
          "type": "string"
        }
      ],
      "payable": false,
      "stateMutability": "view",
      "type": "function",
      "signature": "0x06fdde03"
    },
    {
      "constant": true,
      "inputs": [
        {
          "name": "",
          "type": "address"
        }
      ],
      "name": "nodes",
      "outputs": [
        {
          "name": "nodeIp",
          "type": "uint32"
        },
        {
          "name": "rewardsAddr",
          "type": "address"
        },
        {
          "name": "isStaked",
          "type": "bool"
        },
        {
          "name": "amountStaked",
          "type": "uint256"
        },
        {
          "name": "stakeLockedUntil",
          "type": "uint256"
        }
      ],
      "payable": false,
      "stateMutability": "view",
      "type": "function",
      "signature": "0x189a5a17"
    },
    {
      "constant": false,
      "inputs": [],
      "name": "unpause",
      "outputs": [],
      "payable": false,
      "stateMutability": "nonpayable",
      "type": "function",
      "signature": "0x3f4ba83a"
    },
    {
      "constant": true,
      "inputs": [
        {
          "name": "",
          "type": "address"
        }
      ],
      "name": "eligibleCores",
      "outputs": [
        {
          "name": "",
          "type": "bool"
        }
      ],
      "payable": false,
      "stateMutability": "view",
      "type": "function",
      "signature": "0x43509b41"
    },
    {
      "constant": true,
      "inputs": [
        {
          "name": "account",
          "type": "address"
        }
      ],
      "name": "isPauser",
      "outputs": [
        {
          "name": "",
          "type": "bool"
        }
      ],
      "payable": false,
      "stateMutability": "view",
      "type": "function",
      "signature": "0x46fbf68e"
    },
    {
      "constant": true,
      "inputs": [
        {
          "name": "",
          "type": "uint32"
        }
      ],
      "name": "allocatedIps",
      "outputs": [
        {
          "name": "",
          "type": "bool"
        }
      ],
      "payable": false,
      "stateMutability": "view",
      "type": "function",
      "signature": "0x4b0624bb"
    },
    {
      "constant": true,
      "inputs": [],
      "name": "paused",
      "outputs": [
        {
          "name": "",
          "type": "bool"
        }
      ],
      "payable": false,
      "stateMutability": "view",
      "type": "function",
      "signature": "0x5c975abb"
    },
    {
      "constant": true,
      "inputs": [],
      "name": "stakedCoresCount",
      "outputs": [
        {
          "name": "",
          "type": "uint256"
        }
      ],
      "payable": false,
      "stateMutability": "view",
      "type": "function",
      "signature": "0x6b9dd608"
    },
    {
      "constant": false,
      "inputs": [],
      "name": "renouncePauser",
      "outputs": [],
      "payable": false,
      "stateMutability": "nonpayable",
      "type": "function",
      "signature": "0x6ef8d66d"
    },
    {
      "constant": false,
      "inputs": [],
      "name": "renounceOwnership",
      "outputs": [],
      "payable": false,
      "stateMutability": "nonpayable",
      "type": "function",
      "signature": "0x715018a6"
    },
    {
      "constant": true,
      "inputs": [],
      "name": "CORE_STAKING_DURATION",
      "outputs": [
        {
          "name": "",
          "type": "uint256"
        }
      ],
      "payable": false,
      "stateMutability": "view",
      "type": "function",
      "signature": "0x7c8f3840"
    },
    {
      "constant": false,
      "inputs": [
        {
          "name": "account",
          "type": "address"
        }
      ],
      "name": "addPauser",
      "outputs": [],
      "payable": false,
      "stateMutability": "nonpayable",
      "type": "function",
      "signature": "0x82dc1ec4"
    },
    {
      "constant": false,
      "inputs": [],
      "name": "pause",
      "outputs": [],
      "payable": false,
      "stateMutability": "nonpayable",
      "type": "function",
      "signature": "0x8456cb59"
    },
    {
      "constant": true,
      "inputs": [
        {
          "name": "",
          "type": "address"
        }
      ],
      "name": "cores",
      "outputs": [
        {
          "name": "coreIp",
          "type": "uint32"
        },
        {
          "name": "isStaked",
          "type": "bool"
        },
        {
          "name": "isHealthy",
          "type": "bool"
        },
        {
          "name": "coreId",
          "type": "bytes"
        },
        {
          "name": "amountStaked",
          "type": "uint256"
        },
        {
          "name": "stakeLockedUntil",
          "type": "uint256"
        }
      ],
      "payable": false,
      "stateMutability": "view",
      "type": "function",
      "signature": "0x85ad32c4"
    },
    {
      "constant": true,
      "inputs": [],
      "name": "owner",
      "outputs": [
        {
          "name": "",
          "type": "address"
        }
      ],
      "payable": false,
      "stateMutability": "view",
      "type": "function",
      "signature": "0x8da5cb5b"
    },
    {
      "constant": true,
      "inputs": [],
      "name": "isOwner",
      "outputs": [
        {
          "name": "",
          "type": "bool"
        }
      ],
      "payable": false,
      "stateMutability": "view",
      "type": "function",
      "signature": "0x8f32d59b"
    },
    {
      "constant": true,
      "inputs": [
        {
          "name": "",
          "type": "address"
        },
        {
          "name": "",
          "type": "address"
        }
      ],
      "name": "coreApprovalSignaturesUsed",
      "outputs": [
        {
          "name": "",
          "type": "bool"
        }
      ],
      "payable": false,
      "stateMutability": "view",
      "type": "function",
      "signature": "0xaa58b008"
    },
    {
      "constant": true,
      "inputs": [],
      "name": "NODE_STAKING_AMOUNT",
      "outputs": [
        {
          "name": "",
          "type": "uint256"
        }
      ],
      "payable": false,
      "stateMutability": "view",
      "type": "function",
      "signature": "0xcfc635d4"
    },
    {
      "constant": true,
      "inputs": [],
      "name": "CORE_STAKING_AMOUNT",
      "outputs": [
        {
          "name": "",
          "type": "uint256"
        }
      ],
      "payable": false,
      "stateMutability": "view",
      "type": "function",
      "signature": "0xe5d0bf7d"
    },
    {
      "constant": false,
      "inputs": [
        {
          "name": "newOwner",
          "type": "address"
        }
      ],
      "name": "transferOwnership",
      "outputs": [],
      "payable": false,
      "stateMutability": "nonpayable",
      "type": "function",
      "signature": "0xf2fde38b"
    },
    {
      "constant": true,
      "inputs": [],
      "name": "NODE_STAKING_DURATION",
      "outputs": [
        {
          "name": "",
          "type": "uint256"
        }
      ],
      "payable": false,
      "stateMutability": "view",
      "type": "function",
      "signature": "0xf353e749"
    },
    {
      "inputs": [
        {
          "name": "_token",
          "type": "address"
        }
      ],
      "payable": false,
      "stateMutability": "nonpayable",
      "type": "constructor",
      "signature": "constructor"
    },
    {
      "anonymous": false,
      "inputs": [
        {
          "indexed": true,
          "name": "_sender",
          "type": "address"
        },
        {
          "indexed": false,
          "name": "_nodeIp",
          "type": "uint32"
        },
        {
          "indexed": false,
          "name": "_rewardsAddr",
          "type": "address"
        },
        {
          "indexed": false,
          "name": "_amountStaked",
          "type": "uint256"
        },
        {
          "indexed": false,
          "name": "_duration",
          "type": "uint256"
        }
      ],
      "name": "NodeStaked",
      "type": "event",
      "signature": "0x3a506917cfa3b7b4b782b6385f02923905fd60e81cc7b673e3a1453f834af259"
    },
    {
      "anonymous": false,
      "inputs": [
        {
          "indexed": true,
          "name": "_sender",
          "type": "address"
        },
        {
          "indexed": false,
          "name": "_nodeIp",
          "type": "uint32"
        },
        {
          "indexed": false,
          "name": "_amountStaked",
          "type": "uint256"
        },
        {
          "indexed": false,
          "name": "_duration",
          "type": "uint256"
        }
      ],
      "name": "NodeStakeUpdated",
      "type": "event",
      "signature": "0x32ea73b36321c1e1a1ab6d4c06e53a3118dceb49c9001e0af83f50764cdcd430"
    },
    {
      "anonymous": false,
      "inputs": [
        {
          "indexed": true,
          "name": "_sender",
          "type": "address"
        },
        {
          "indexed": false,
          "name": "_nodeIp",
          "type": "uint32"
        },
        {
          "indexed": false,
          "name": "_amountStaked",
          "type": "uint256"
        }
      ],
      "name": "NodeUnStaked",
      "type": "event",
      "signature": "0x7723f01f1f38e47e511a270774d4dcc884a882c51ec5b002a5a94995afcd1521"
    },
    {
      "anonymous": false,
      "inputs": [
        {
          "indexed": true,
          "name": "_sender",
          "type": "address"
        },
        {
          "indexed": false,
          "name": "_coreIp",
          "type": "uint32"
        },
        {
          "indexed": false,
          "name": "_coreId",
          "type": "bytes"
        },
        {
          "indexed": false,
          "name": "_isHealthy",
          "type": "bool"
        },
        {
          "indexed": false,
          "name": "_amountStaked",
          "type": "uint256"
        },
        {
          "indexed": false,
          "name": "_duration",
          "type": "uint256"
        }
      ],
      "name": "CoreStaked",
      "type": "event",
      "signature": "0xcd638b24ef212064ec41ad418d34e7fe3a6bcd59e799ec7752809b2041d46994"
    },
    {
      "anonymous": false,
      "inputs": [
        {
          "indexed": true,
          "name": "_sender",
          "type": "address"
        },
        {
          "indexed": false,
          "name": "_coreIp",
          "type": "uint32"
        },
        {
          "indexed": false,
          "name": "coreId",
          "type": "bytes"
        },
        {
          "indexed": false,
          "name": "_isHealthy",
          "type": "bool"
        },
        {
          "indexed": false,
          "name": "_amountStaked",
          "type": "uint256"
        },
        {
          "indexed": false,
          "name": "_duration",
          "type": "uint256"
        }
      ],
      "name": "CoreStakeUpdated",
      "type": "event",
      "signature": "0x0c1800c36b7eb0941ecf968d7b638051ac818bf2c4add04918b88a4bccb08582"
    },
    {
      "anonymous": false,
      "inputs": [
        {
          "indexed": true,
          "name": "_sender",
          "type": "address"
        },
        {
          "indexed": false,
          "name": "_coreIp",
          "type": "uint32"
        },
        {
          "indexed": false,
          "name": "coreId",
          "type": "bytes"
        },
        {
          "indexed": false,
          "name": "_amountStaked",
          "type": "uint256"
        }
      ],
      "name": "CoreUnStaked",
      "type": "event",
      "signature": "0xc296366f2b2d145a10f6eedf265d71950820c999f30da87636b41fdb83d75bf6"
    },
    {
      "anonymous": false,
      "inputs": [
        {
          "indexed": true,
          "name": "_sender",
          "type": "address"
        },
        {
          "indexed": true,
          "name": "_approvedCore",
          "type": "address"
        },
        {
          "indexed": false,
          "name": "_majority",
          "type": "uint256"
        },
        {
          "indexed": false,
          "name": "_recoveredSigs",
          "type": "uint256"
        }
      ],
      "name": "CoreApproval",
      "type": "event",
      "signature": "0xb7db5cbb02d6246016253850e7242b5f7a48188427a83c471eb591ea73a2ab84"
    },
    {
      "anonymous": false,
      "inputs": [
        {
          "indexed": false,
          "name": "account",
          "type": "address"
        }
      ],
      "name": "Paused",
      "type": "event",
      "signature": "0x62e78cea01bee320cd4e420270b5ea74000d11b0c9f74754ebdbfc544b05a258"
    },
    {
      "anonymous": false,
      "inputs": [
        {
          "indexed": false,
          "name": "account",
          "type": "address"
        }
      ],
      "name": "Unpaused",
      "type": "event",
      "signature": "0x5db9ee0a495bf2e6ff9c91a7834c1ba4fdd244a5e8aa4e537bd38aeae4b073aa"
    },
    {
      "anonymous": false,
      "inputs": [
        {
          "indexed": true,
          "name": "account",
          "type": "address"
        }
      ],
      "name": "PauserAdded",
      "type": "event",
      "signature": "0x6719d08c1888103bea251a4ed56406bd0c3e69723c8a1686e017e7bbe159b6f8"
    },
    {
      "anonymous": false,
      "inputs": [
        {
          "indexed": true,
          "name": "account",
          "type": "address"
        }
      ],
      "name": "PauserRemoved",
      "type": "event",
      "signature": "0xcd265ebaf09df2871cc7bd4133404a235ba12eff2041bb89d9c714a2621c7c7e"
    },
    {
      "anonymous": false,
      "inputs": [
        {
          "indexed": true,
          "name": "previousOwner",
          "type": "address"
        },
        {
          "indexed": true,
          "name": "newOwner",
          "type": "address"
        }
      ],
      "name": "OwnershipTransferred",
      "type": "event",
      "signature": "0x8be0079c531659141344cd1fd0a4f28419497f9722a3daafe3b4186f6b6457e0"
    },
    {
      "constant": false,
      "inputs": [
        {
          "name": "_nodeIp",
          "type": "uint32"
        },
        {
          "name": "_rewardsAddr",
          "type": "address"
        }
      ],
      "name": "stake",
      "outputs": [
        {
          "name": "",
          "type": "bool"
        }
      ],
      "payable": false,
      "stateMutability": "nonpayable",
      "type": "function",
      "signature": "0xeff49c8b"
    },
    {
      "constant": false,
      "inputs": [
        {
          "name": "_coreIp",
          "type": "uint32"
        },
        {
          "name": "_coreId",
          "type": "bytes"
        }
      ],
      "name": "stakeCore",
      "outputs": [
        {
          "name": "",
          "type": "bool"
        }
      ],
      "payable": false,
      "stateMutability": "nonpayable",
      "type": "function",
      "signature": "0xf1a4761e"
    },
    {
      "constant": false,
      "inputs": [
        {
          "name": "_nodeIp",
          "type": "uint32"
        }
      ],
      "name": "updateStake",
      "outputs": [
        {
          "name": "",
          "type": "bool"
        }
      ],
      "payable": false,
      "stateMutability": "nonpayable",
      "type": "function",
      "signature": "0x8689baf2"
    },
    {
      "constant": false,
      "inputs": [
        {
          "name": "_coreIp",
          "type": "uint32"
        }
      ],
      "name": "updateStakeCore",
      "outputs": [
        {
          "name": "",
          "type": "bool"
        }
      ],
      "payable": false,
      "stateMutability": "nonpayable",
      "type": "function",
      "signature": "0xd2f05a51"
    },
    {
      "constant": false,
      "inputs": [],
      "name": "unStake",
      "outputs": [
        {
          "name": "",
          "type": "bool"
        }
      ],
      "payable": false,
      "stateMutability": "nonpayable",
      "type": "function",
      "signature": "0x73cf575a"
    },
    {
      "constant": false,
      "inputs": [],
      "name": "unStakeCore",
      "outputs": [
        {
          "name": "",
          "type": "bool"
        }
      ],
      "payable": false,
      "stateMutability": "nonpayable",
      "type": "function",
      "signature": "0xdc964893"
    },
    {
      "constant": false,
      "inputs": [
        {
          "name": "_core",
          "type": "address"
        },
        {
          "name": "_coreHash",
          "type": "bytes32"
        },
        {
          "name": "sigs",
          "type": "bytes[126]"
        }
      ],
      "name": "approveCoreStaking",
      "outputs": [
        {
          "name": "",
          "type": "bool"
        }
      ],
      "payable": false,
      "stateMutability": "nonpayable",
      "type": "function",
      "signature": "0x0ba3c365"
    },
    {
      "constant": true,
      "inputs": [
        {
          "name": "_address",
          "type": "address"
        }
      ],
      "name": "isHealthyCore",
      "outputs": [
        {
          "name": "",
          "type": "bool"
        }
      ],
      "payable": false,
      "stateMutability": "view",
      "type": "function",
      "signature": "0x9273cce8"
    }
  ],
  "bytecode": "0x60806040526040805190810160405280601381526020017f436861696e706f696e7420526567697374727900000000000000000000000000815250600390805190602001906200005192919062000413565b5064746a5288006005556078600655650246139ca800600755607860085560006009553480156200008157600080fd5b50604051602080620046478339810180604052620000a39190810190620004d8565b336000806101000a81548173ffffffffffffffffffffffffffffffffffffffff021916908373ffffffffffffffffffffffffffffffffffffffff1602179055506000809054906101000a900473ffffffffffffffffffffffffffffffffffffffff1673ffffffffffffffffffffffffffffffffffffffff16600073ffffffffffffffffffffffffffffffffffffffff167f8be0079c531659141344cd1fd0a4f28419497f9722a3daafe3b4186f6b6457e060405160405180910390a3620001793362000251640100000000026401000000009004565b6000600260006101000a81548160ff021916908315150217905550600073ffffffffffffffffffffffffffffffffffffffff168173ffffffffffffffffffffffffffffffffffffffff161415151562000209576040517f08c379a000000000000000000000000000000000000000000000000000000000815260040162000200906200053b565b60405180910390fd5b80600460006101000a81548173ffffffffffffffffffffffffffffffffffffffff021916908373ffffffffffffffffffffffffffffffffffffffff1602179055505062000591565b62000275816001620002bb6401000000000262002dea179091906401000000009004565b8073ffffffffffffffffffffffffffffffffffffffff167f6719d08c1888103bea251a4ed56406bd0c3e69723c8a1686e017e7bbe159b6f860405160405180910390a250565b600073ffffffffffffffffffffffffffffffffffffffff168173ffffffffffffffffffffffffffffffffffffffff1614151515620002f857600080fd5b6200031382826200037e640100000000026401000000009004565b1515156200032057600080fd5b60018260000160008373ffffffffffffffffffffffffffffffffffffffff1673ffffffffffffffffffffffffffffffffffffffff16815260200190815260200160002060006101000a81548160ff0219169083151502179055505050565b60008073ffffffffffffffffffffffffffffffffffffffff168273ffffffffffffffffffffffffffffffffffffffff1614151515620003bc57600080fd5b8260000160008373ffffffffffffffffffffffffffffffffffffffff1673ffffffffffffffffffffffffffffffffffffffff16815260200190815260200160002060009054906101000a900460ff16905092915050565b828054600181600116156101000203166002900490600052602060002090601f016020900481019282601f106200045657805160ff191683800117855562000487565b8280016001018555821562000487579182015b828111156200048657825182559160200191906001019062000469565b5b5090506200049691906200049a565b5090565b620004bf91905b80821115620004bb576000816000905550600101620004a1565b5090565b90565b6000620004d082516200057d565b905092915050565b600060208284031215620004eb57600080fd5b6000620004fb84828501620004c2565b91505092915050565b6000601b82527f746f6b656e20616464726573732063616e6e6f742062652030783000000000006020830152604082019050919050565b60006020820190508181036000830152620005568162000504565b9050919050565b600073ffffffffffffffffffffffffffffffffffffffff82169050919050565b60006200058a826200055d565b9050919050565b6140a680620005a16000396000f3fe608060405260043610610175576000357c0100000000000000000000000000000000000000000000000000000000900463ffffffff16806306fdde031461017a5780630ba3c365146101a5578063189a5a17146101e25780633f4ba83a1461022357806343509b411461023a57806346fbf68e146102775780634b0624bb146102b45780635c975abb146102f15780636b9dd6081461031c5780636ef8d66d14610347578063715018a61461035e57806373cf575a146103755780637c8f3840146103a057806382dc1ec4146103cb5780638456cb59146103f457806385ad32c41461040b5780638689baf21461044d5780638da5cb5b1461048a5780638f32d59b146104b55780639273cce8146104e0578063aa58b0081461051d578063cfc635d41461055a578063d2f05a5114610585578063dc964893146105c2578063e5d0bf7d146105ed578063eff49c8b14610618578063f1a4761e14610655578063f2fde38b14610692578063f353e749146106bb575b600080fd5b34801561018657600080fd5b5061018f6106e6565b60405161019c91906139cf565b60405180910390f35b3480156101b157600080fd5b506101cc60048036036101c7919081019061314f565b610784565b6040516101d9919061398b565b60405180910390f35b3480156101ee57600080fd5b50610209600480360361020491908101906130ea565b610d2e565b60405161021a959493929190613c15565b60405180910390f35b34801561022f57600080fd5b50610238610da1565b005b34801561024657600080fd5b50610261600480360361025c91908101906130ea565b610e24565b60405161026e919061398b565b60405180910390f35b34801561028357600080fd5b5061029e600480360361029991908101906130ea565b610e44565b6040516102ab919061398b565b60405180910390f35b3480156102c057600080fd5b506102db60048036036102d691908101906131df565b610e61565b6040516102e8919061398b565b60405180910390f35b3480156102fd57600080fd5b50610306610e81565b604051610313919061398b565b60405180910390f35b34801561032857600080fd5b50610331610e98565b60405161033e9190613bd1565b60405180910390f35b34801561035357600080fd5b5061035c610e9e565b005b34801561036a57600080fd5b50610373610ea9565b005b34801561038157600080fd5b5061038a610f7b565b604051610397919061398b565b60405180910390f35b3480156103ac57600080fd5b506103b5611356565b6040516103c29190613bd1565b60405180910390f35b3480156103d757600080fd5b506103f260048036036103ed91908101906130ea565b61135c565b005b34801561040057600080fd5b5061040961137c565b005b34801561041757600080fd5b50610432600480360361042d91908101906130ea565b611400565b60405161044496959493929190613cad565b60405180910390f35b34801561045957600080fd5b50610474600480360361046f91908101906131df565b6114fe565b604051610481919061398b565b60405180910390f35b34801561049657600080fd5b5061049f611776565b6040516104ac91906138f5565b60405180910390f35b3480156104c157600080fd5b506104ca61179f565b6040516104d7919061398b565b60405180910390f35b3480156104ec57600080fd5b50610507600480360361050291908101906130ea565b6117f6565b604051610514919061398b565b60405180910390f35b34801561052957600080fd5b50610544600480360361053f9190810190613113565b61184f565b604051610551919061398b565b60405180910390f35b34801561056657600080fd5b5061056f61187e565b60405161057c9190613bd1565b60405180910390f35b34801561059157600080fd5b506105ac60048036036105a791908101906131df565b611884565b6040516105b9919061398b565b60405180910390f35b3480156105ce57600080fd5b506105d7611b14565b6040516105e4919061398b565b60405180910390f35b3480156105f957600080fd5b50610602611fa5565b60405161060f9190613bd1565b60405180910390f35b34801561062457600080fd5b5061063f600480360361063a9190810190613208565b611fab565b60405161064c919061398b565b60405180910390f35b34801561066157600080fd5b5061067c60048036036106779190810190613244565b612186565b604051610689919061398b565b60405180910390f35b34801561069e57600080fd5b506106b960048036036106b491908101906130ea565b6123f9565b005b3480156106c757600080fd5b506106d0612418565b6040516106dd9190613bd1565b60405180910390f35b60038054600181600116156101000203166002900480601f01602080910402602001604051908101604052809291908181526020018280546001816001161561010002031660029004801561077c5780601f106107515761010080835404028352916020019161077c565b820191906000526020600020905b81548152906001019060200180831161075f57829003601f168201915b505050505081565b600061078e611776565b73ffffffffffffffffffffffffffffffffffffffff163373ffffffffffffffffffffffffffffffffffffffff1614806108135750600b60003373ffffffffffffffffffffffffffffffffffffffff1673ffffffffffffffffffffffffffffffffffffffff16815260200190815260200160002060000160049054906101000a900460ff165b1515610854576040517f08c379a000000000000000000000000000000000000000000000000000000000815260040161084b90613ad1565b60405180910390fd5b606060006040519080825280601f01601f19166020018201604052801561088a5781602001600182028038833980820191505090505b509050610895611776565b73ffffffffffffffffffffffffffffffffffffffff163373ffffffffffffffffffffffffffffffffffffffff16141561098d576001600d60008773ffffffffffffffffffffffffffffffffffffffff1673ffffffffffffffffffffffffffffffffffffffff16815260200190815260200160002060006101000a81548160ff0219169083151502179055508473ffffffffffffffffffffffffffffffffffffffff163373ffffffffffffffffffffffffffffffffffffffff167fb7db5cbb02d6246016253850e7242b5f7a48188427a83c471eb591ea73a2ab846000806040516109809291906139a6565b60405180910390a3610d22565b600085604051602001808273ffffffffffffffffffffffffffffffffffffffff1673ffffffffffffffffffffffffffffffffffffffff166c01000000000000000000000000028152601401915050604051602081830303815290604052805190602001209050846109fd8261241e565b141515610a3f576040517f08c379a0000000000000000000000000000000000000000000000000000000008152600401610a3690613a51565b60405180910390fd5b600080905060006001905060008090505b607e8160ff161015610c5457610a8485888360ff16607e81101515610a7157fe5b602002015161247690919063ffffffff16565b15610a8e57610c54565b6000610ab8888360ff16607e81101515610aa457fe5b60200201518a6124e590919063ffffffff16565b9050610ac3816117f6565b1515610b04576040517f08c379a0000000000000000000000000000000000000000000000000000000008152600401610afb90613a31565b60405180910390fd5b60001515600e60008c73ffffffffffffffffffffffffffffffffffffffff1673ffffffffffffffffffffffffffffffffffffffff16815260200190815260200160002060008373ffffffffffffffffffffffffffffffffffffffff1673ffffffffffffffffffffffffffffffffffffffff16815260200190815260200160002060009054906101000a900460ff1615151415610c46576001600e60008c73ffffffffffffffffffffffffffffffffffffffff1673ffffffffffffffffffffffffffffffffffffffff16815260200190815260200160002060008373ffffffffffffffffffffffffffffffffffffffff1673ffffffffffffffffffffffffffffffffffffffff16815260200190815260200160002060006101000a81548160ff021916908315150217905550610c436001856125c990919063ffffffff16565b93505b508080600101915050610a50565b508082101515610d1e576001600d60008a73ffffffffffffffffffffffffffffffffffffffff1673ffffffffffffffffffffffffffffffffffffffff16815260200190815260200160002060006101000a81548160ff0219169083151502179055508773ffffffffffffffffffffffffffffffffffffffff163373ffffffffffffffffffffffffffffffffffffffff167fb7db5cbb02d6246016253850e7242b5f7a48188427a83c471eb591ea73a2ab848385604051610d15929190613bec565b60405180910390a35b5050505b60019150509392505050565b600a6020528060005260406000206000915090508060000160009054906101000a900463ffffffff16908060000160049054906101000a900473ffffffffffffffffffffffffffffffffffffffff16908060000160189054906101000a900460ff16908060010154908060020154905085565b610daa33610e44565b1515610db557600080fd5b600260009054906101000a900460ff161515610dd057600080fd5b6000600260006101000a81548160ff0219169083151502179055507f5db9ee0a495bf2e6ff9c91a7834c1ba4fdd244a5e8aa4e537bd38aeae4b073aa33604051610e1a9190613910565b60405180910390a1565b600d6020528060005260406000206000915054906101000a900460ff1681565b6000610e5a8260016125ea90919063ffffffff16565b9050919050565b600c6020528060005260406000206000915054906101000a900460ff1681565b6000600260009054906101000a900460ff16905090565b60095481565b610ea73361267e565b565b610eb161179f565b1515610ebc57600080fd5b600073ffffffffffffffffffffffffffffffffffffffff166000809054906101000a900473ffffffffffffffffffffffffffffffffffffffff1673ffffffffffffffffffffffffffffffffffffffff167f8be0079c531659141344cd1fd0a4f28419497f9722a3daafe3b4186f6b6457e060405160405180910390a360008060006101000a81548173ffffffffffffffffffffffffffffffffffffffff021916908373ffffffffffffffffffffffffffffffffffffffff160217905550565b6000600260009054906101000a900460ff16151515610f9957600080fd5b60011515600a60003373ffffffffffffffffffffffffffffffffffffffff1673ffffffffffffffffffffffffffffffffffffffff16815260200190815260200160002060000160189054906101000a900460ff161515141515611031576040517f08c379a000000000000000000000000000000000000000000000000000000000815260040161102890613a71565b60405180910390fd5b600a60003373ffffffffffffffffffffffffffffffffffffffff1673ffffffffffffffffffffffffffffffffffffffff1681526020019081526020016000206002015442101515156110b8576040517f08c379a00000000000000000000000000000000000000000000000000000000081526004016110af90613a11565b60405180910390fd5b6000600a60003373ffffffffffffffffffffffffffffffffffffffff1673ffffffffffffffffffffffffffffffffffffffff168152602001908152602001600020905060008160000160009054906101000a900463ffffffff169050600082600101549050600c60008363ffffffff1663ffffffff16815260200190815260200160002060006101000a81549060ff0219169055600a60003373ffffffffffffffffffffffffffffffffffffffff1673ffffffffffffffffffffffffffffffffffffffff168152602001908152602001600020600080820160006101000a81549063ffffffff02191690556000820160046101000a81549073ffffffffffffffffffffffffffffffffffffffff02191690556000820160186101000a81549060ff0219169055600182016000905560028201600090555050600460009054906101000a900473ffffffffffffffffffffffffffffffffffffffff1673ffffffffffffffffffffffffffffffffffffffff1663a9059cbb33836040518363ffffffff167c0100000000000000000000000000000000000000000000000000000000028152600401611269929190613962565b602060405180830381600087803b15801561128357600080fd5b505af1158015611297573d6000803e3d6000fd5b505050506040513d601f19601f820116820180604052506112bb91908101906131b6565b15156112fc576040517f08c379a00000000000000000000000000000000000000000000000000000000081526004016112f390613bb1565b60405180910390fd5b3373ffffffffffffffffffffffffffffffffffffffff167f7723f01f1f38e47e511a270774d4dcc884a882c51ec5b002a5a94995afcd15218383604051611344929190613e07565b60405180910390a26001935050505090565b60085481565b61136533610e44565b151561137057600080fd5b611379816126d8565b50565b61138533610e44565b151561139057600080fd5b600260009054906101000a900460ff161515156113ac57600080fd5b6001600260006101000a81548160ff0219169083151502179055507f62e78cea01bee320cd4e420270b5ea74000d11b0c9f74754ebdbfc544b05a258336040516113f69190613910565b60405180910390a1565b600b6020528060005260406000206000915090508060000160009054906101000a900463ffffffff16908060000160049054906101000a900460ff16908060000160059054906101000a900460ff1690806001018054600181600116156101000203166002900480601f0160208091040260200160405190810160405280929190818152602001828054600181600116156101000203166002900480156114e85780601f106114bd576101008083540402835291602001916114e8565b820191906000526020600020905b8154815290600101906020018083116114cb57829003601f168201915b5050505050908060020154908060030154905086565b6000600260009054906101000a900460ff1615151561151c57600080fd5b600a60003373ffffffffffffffffffffffffffffffffffffffff1673ffffffffffffffffffffffffffffffffffffffff16815260200190815260200160002060000160189054906101000a900460ff1615156115ad576040517f08c379a00000000000000000000000000000000000000000000000000000000081526004016115a490613a71565b60405180910390fd5b60008263ffffffff16141515156115f9576040517f08c379a00000000000000000000000000000000000000000000000000000000081526004016115f090613a91565b60405180910390fd5b6000600a60003373ffffffffffffffffffffffffffffffffffffffff1673ffffffffffffffffffffffffffffffffffffffff16815260200190815260200160002090508263ffffffff168160000160009054906101000a900463ffffffff1663ffffffff1614151561176c5760001515600c60008563ffffffff1663ffffffff16815260200190815260200160002060009054906101000a900460ff1615151415156116da576040517f08c379a00000000000000000000000000000000000000000000000000000000081526004016116d1906139f1565b60405180910390fd5b828160000160006101000a81548163ffffffff021916908363ffffffff1602179055503373ffffffffffffffffffffffffffffffffffffffff167f32ea73b36321c1e1a1ab6d4c06e53a3118dceb49c9001e0af83f50764cdcd4308260000160009054906101000a900463ffffffff168360010154846002015460405161176393929190613e30565b60405180910390a25b6001915050919050565b60008060009054906101000a900473ffffffffffffffffffffffffffffffffffffffff16905090565b60008060009054906101000a900473ffffffffffffffffffffffffffffffffffffffff1673ffffffffffffffffffffffffffffffffffffffff163373ffffffffffffffffffffffffffffffffffffffff1614905090565b6000600b60008373ffffffffffffffffffffffffffffffffffffffff1673ffffffffffffffffffffffffffffffffffffffff16815260200190815260200160002060000160059054906101000a900460ff169050919050565b600e6020528160005260406000206020528060005260406000206000915091509054906101000a900460ff1681565b60055481565b6000600260009054906101000a900460ff161515156118a257600080fd5b600b60003373ffffffffffffffffffffffffffffffffffffffff1673ffffffffffffffffffffffffffffffffffffffff16815260200190815260200160002060000160049054906101000a900460ff161515611933576040517f08c379a000000000000000000000000000000000000000000000000000000000815260040161192a90613b71565b60405180910390fd5b60008263ffffffff161415151561197f576040517f08c379a000000000000000000000000000000000000000000000000000000000815260040161197690613b51565b60405180910390fd5b6000600b60003373ffffffffffffffffffffffffffffffffffffffff1673ffffffffffffffffffffffffffffffffffffffff16815260200190815260200160002090508263ffffffff168160000160009054906101000a900463ffffffff1663ffffffff16141515611b0a5760001515600c60008563ffffffff1663ffffffff16815260200190815260200160002060009054906101000a900460ff161515141515611a60576040517f08c379a0000000000000000000000000000000000000000000000000000000008152600401611a57906139f1565b60405180910390fd5b828160000160006101000a81548163ffffffff021916908363ffffffff1602179055503373ffffffffffffffffffffffffffffffffffffffff167f0c1800c36b7eb0941ecf968d7b638051ac818bf2c4add04918b88a4bccb085828260000160009054906101000a900463ffffffff16836001018460000160059054906101000a900460ff1685600201548660030154604051611b01959493929190613dad565b60405180910390a25b6001915050919050565b6000600260009054906101000a900460ff16151515611b3257600080fd5b600b60003373ffffffffffffffffffffffffffffffffffffffff1673ffffffffffffffffffffffffffffffffffffffff16815260200190815260200160002060000160049054906101000a900460ff161515611bc3576040517f08c379a0000000000000000000000000000000000000000000000000000000008152600401611bba90613b71565b60405180910390fd5b600b60003373ffffffffffffffffffffffffffffffffffffffff1673ffffffffffffffffffffffffffffffffffffffff168152602001908152602001600020600301544210151515611c4a576040517f08c379a0000000000000000000000000000000000000000000000000000000008152600401611c4190613a11565b60405180910390fd5b6000600b60003373ffffffffffffffffffffffffffffffffffffffff1673ffffffffffffffffffffffffffffffffffffffff168152602001908152602001600020905060008160000160009054906101000a900463ffffffff1690506060826001018054600181600116156101000203166002900480601f016020809104026020016040519081016040528092919081815260200182805460018160011615610100020316600290048015611d405780601f10611d1557610100808354040283529160200191611d40565b820191906000526020600020905b815481529060010190602001808311611d2357829003601f168201915b50505050509050600083600201549050600c60008463ffffffff1663ffffffff16815260200190815260200160002060006101000a81549060ff0219169055600b60003373ffffffffffffffffffffffffffffffffffffffff1673ffffffffffffffffffffffffffffffffffffffff168152602001908152602001600020600080820160006101000a81549063ffffffff02191690556000820160046101000a81549060ff02191690556000820160056101000a81549060ff0219169055600182016000611e0e9190612e9a565b600282016000905560038201600090555050611e36600160095461273290919063ffffffff16565b600981905550600460009054906101000a900473ffffffffffffffffffffffffffffffffffffffff1673ffffffffffffffffffffffffffffffffffffffff1663a9059cbb33836040518363ffffffff167c0100000000000000000000000000000000000000000000000000000000028152600401611eb5929190613962565b602060405180830381600087803b158015611ecf57600080fd5b505af1158015611ee3573d6000803e3d6000fd5b505050506040513d601f19601f82011682018060405250611f0791908101906131b6565b1515611f48576040517f08c379a0000000000000000000000000000000000000000000000000000000008152600401611f3f90613bb1565b60405180910390fd5b3373ffffffffffffffffffffffffffffffffffffffff167fc296366f2b2d145a10f6eedf265d71950820c999f30da87636b41fdb83d75bf6848484604051611f9293929190613d6f565b60405180910390a2600194505050505090565b60075481565b6000600260009054906101000a900460ff16151515611fc957600080fd5b611fd38383612754565b1515612014576040517f08c379a000000000000000000000000000000000000000000000000000000000815260040161200b90613af1565b60405180910390fd5b3373ffffffffffffffffffffffffffffffffffffffff167f3a506917cfa3b7b4b782b6385f02923905fd60e81cc7b673e3a1453f834af25984846005546006546040516120649493929190613c68565b60405180910390a2600460009054906101000a900473ffffffffffffffffffffffffffffffffffffffff1673ffffffffffffffffffffffffffffffffffffffff166323b872dd33306005546040518463ffffffff167c01000000000000000000000000000000000000000000000000000000000281526004016120e99392919061392b565b602060405180830381600087803b15801561210357600080fd5b505af1158015612117573d6000803e3d6000fd5b505050506040513d601f19601f8201168201806040525061213b91908101906131b6565b151561217c576040517f08c379a000000000000000000000000000000000000000000000000000000000815260040161217390613b11565b60405180910390fd5b6001905092915050565b6000600260009054906101000a900460ff161515156121a457600080fd5b60011515600d60003373ffffffffffffffffffffffffffffffffffffffff1673ffffffffffffffffffffffffffffffffffffffff16815260200190815260200160002060009054906101000a900460ff161515141515612239576040517f08c379a000000000000000000000000000000000000000000000000000000000815260040161223090613ab1565b60405180910390fd5b6122438383612997565b1515612284576040517f08c379a000000000000000000000000000000000000000000000000000000000815260040161227b90613af1565b60405180910390fd5b600460009054906101000a900473ffffffffffffffffffffffffffffffffffffffff1673ffffffffffffffffffffffffffffffffffffffff166323b872dd33306007546040518463ffffffff167c01000000000000000000000000000000000000000000000000000000000281526004016123019392919061392b565b602060405180830381600087803b15801561231b57600080fd5b505af115801561232f573d6000803e3d6000fd5b505050506040513d601f19601f8201168201806040525061235391908101906131b6565b1515612394576040517f08c379a000000000000000000000000000000000000000000000000000000000815260040161238b90613b11565b60405180910390fd5b3373ffffffffffffffffffffffffffffffffffffffff167fcd638b24ef212064ec41ad418d34e7fe3a6bcd59e799ec7752809b2041d46994848460016007546008546040516123e7959493929190613d15565b60405180910390a26001905092915050565b61240161179f565b151561240c57600080fd5b61241581612c41565b50565b60065481565b60008160405160200180807f19457468657265756d205369676e6564204d6573736167653a0a333200000000815250601c01828152602001915050604051602081830303815290604052805190602001209050919050565b600080600190508351835181146001811461249457600092506124d9565b600160208701838101602088015b6002848385100114156124d457805183511415156124c35760009650600093505b6020830192506020810190506124a2565b505050505b50508091505092915050565b6000806000806041855114151561250257600093505050506125c3565b6020850151925060408501519150606085015160001a9050601b8160ff16101561252d57601b810190505b601b8160ff16141580156125455750601c8160ff1614155b1561255657600093505050506125c3565b60018682858560405160008152602001604052604051808581526020018460ff1660ff1681526020018381526020018281526020019450505050506020604051602081039080840390855afa1580156125b3573d6000803e3d6000fd5b5050506020604051035193505050505b92915050565b60008082840190508381101515156125e057600080fd5b8091505092915050565b60008073ffffffffffffffffffffffffffffffffffffffff168273ffffffffffffffffffffffffffffffffffffffff161415151561262757600080fd5b8260000160008373ffffffffffffffffffffffffffffffffffffffff1673ffffffffffffffffffffffffffffffffffffffff16815260200190815260200160002060009054906101000a900460ff16905092915050565b612692816001612d3b90919063ffffffff16565b8073ffffffffffffffffffffffffffffffffffffffff167fcd265ebaf09df2871cc7bd4133404a235ba12eff2041bb89d9c714a2621c7c7e60405160405180910390a250565b6126ec816001612dea90919063ffffffff16565b8073ffffffffffffffffffffffffffffffffffffffff167f6719d08c1888103bea251a4ed56406bd0c3e69723c8a1686e017e7bbe159b6f860405160405180910390a250565b600082821115151561274357600080fd5b600082840390508091505092915050565b6000600a60003373ffffffffffffffffffffffffffffffffffffffff1673ffffffffffffffffffffffffffffffffffffffff16815260200190815260200160002060000160189054906101000a900460ff161515156127e8576040517f08c379a00000000000000000000000000000000000000000000000000000000081526004016127df90613b31565b60405180910390fd5b60008363ffffffff161415801561282f575060001515600c60008563ffffffff1663ffffffff16815260200190815260200160002060009054906101000a900460ff161515145b1515612870576040517f08c379a000000000000000000000000000000000000000000000000000000000815260040161286790613a91565b60405180910390fd5b6000600654420190506000600a60003373ffffffffffffffffffffffffffffffffffffffff1673ffffffffffffffffffffffffffffffffffffffff1681526020019081526020016000209050848160000160006101000a81548163ffffffff021916908363ffffffff160217905550838160000160046101000a81548173ffffffffffffffffffffffffffffffffffffffff021916908373ffffffffffffffffffffffffffffffffffffffff16021790555060018160000160186101000a81548160ff02191690831515021790555060055481600101819055508181600201819055506001600c60008763ffffffff1663ffffffff16815260200190815260200160002060006101000a81548160ff02191690831515021790555060019250505092915050565b6000600b60003373ffffffffffffffffffffffffffffffffffffffff1673ffffffffffffffffffffffffffffffffffffffff16815260200190815260200160002060000160049054906101000a900460ff16151515612a2b576040517f08c379a0000000000000000000000000000000000000000000000000000000008152600401612a2290613b91565b60405180910390fd5b60008363ffffffff1614158015612a72575060001515600c60008563ffffffff1663ffffffff16815260200190815260200160002060009054906101000a900460ff161515145b1515612ab3576040517f08c379a0000000000000000000000000000000000000000000000000000000008152600401612aaa90613a91565b60405180910390fd5b6000600854420190506000600b60003373ffffffffffffffffffffffffffffffffffffffff1673ffffffffffffffffffffffffffffffffffffffff1681526020019081526020016000209050848160000160006101000a81548163ffffffff021916908363ffffffff16021790555060018160000160046101000a81548160ff02191690831515021790555060018160000160056101000a81548160ff02191690831515021790555083816001019080519060200190612b74929190612ee2565b5060075481600201819055508181600301819055506001600c60008763ffffffff1663ffffffff16815260200190815260200160002060006101000a81548160ff0219169083151502179055506000600d60003373ffffffffffffffffffffffffffffffffffffffff1673ffffffffffffffffffffffffffffffffffffffff16815260200190815260200160002060006101000a81548160ff021916908315150217905550612c2f60016009546125c990919063ffffffff16565b60098190555060019250505092915050565b600073ffffffffffffffffffffffffffffffffffffffff168173ffffffffffffffffffffffffffffffffffffffff1614151515612c7d57600080fd5b8073ffffffffffffffffffffffffffffffffffffffff166000809054906101000a900473ffffffffffffffffffffffffffffffffffffffff1673ffffffffffffffffffffffffffffffffffffffff167f8be0079c531659141344cd1fd0a4f28419497f9722a3daafe3b4186f6b6457e060405160405180910390a3806000806101000a81548173ffffffffffffffffffffffffffffffffffffffff021916908373ffffffffffffffffffffffffffffffffffffffff16021790555050565b600073ffffffffffffffffffffffffffffffffffffffff168173ffffffffffffffffffffffffffffffffffffffff1614151515612d7757600080fd5b612d8182826125ea565b1515612d8c57600080fd5b60008260000160008373ffffffffffffffffffffffffffffffffffffffff1673ffffffffffffffffffffffffffffffffffffffff16815260200190815260200160002060006101000a81548160ff0219169083151502179055505050565b600073ffffffffffffffffffffffffffffffffffffffff168173ffffffffffffffffffffffffffffffffffffffff1614151515612e2657600080fd5b612e3082826125ea565b151515612e3c57600080fd5b60018260000160008373ffffffffffffffffffffffffffffffffffffffff1673ffffffffffffffffffffffffffffffffffffffff16815260200190815260200160002060006101000a81548160ff0219169083151502179055505050565b50805460018160011615610100020316600290046000825580601f10612ec05750612edf565b601f016020900490600052602060002090810190612ede9190612f62565b5b50565b828054600181600116156101000203166002900490600052602060002090601f016020900481019282601f10612f2357805160ff1916838001178555612f51565b82800160010185558215612f51579182015b82811115612f50578251825591602001919060010190612f35565b5b509050612f5e9190612f62565b5090565b612f8491905b80821115612f80576000816000905550600101612f68565b5090565b90565b6000612f938235613f99565b905092915050565b600082601f8301121515612fae57600080fd5b607e612fc1612fbc82613e94565b613e67565b9150818360005b83811015612ff85781358601612fde888261302a565b845260208401935060208301925050600181019050612fc8565b5050505092915050565b600061300e8251613fab565b905092915050565b60006130228235613fb7565b905092915050565b600082601f830112151561303d57600080fd5b813561305061304b82613eb6565b613e67565b9150808252602083016020830185838301111561306c57600080fd5b613077838284614019565b50505092915050565b600082601f830112151561309357600080fd5b81356130a66130a182613ee2565b613e67565b915080825260208301602083018583830111156130c257600080fd5b6130cd838284614019565b50505092915050565b60006130e28235613fc1565b905092915050565b6000602082840312156130fc57600080fd5b600061310a84828501612f87565b91505092915050565b6000806040838503121561312657600080fd5b600061313485828601612f87565b925050602061314585828601612f87565b9150509250929050565b60008060006060848603121561316457600080fd5b600061317286828701612f87565b935050602061318386828701613016565b925050604084013567ffffffffffffffff8111156131a057600080fd5b6131ac86828701612f9b565b9150509250925092565b6000602082840312156131c857600080fd5b60006131d684828501613002565b91505092915050565b6000602082840312156131f157600080fd5b60006131ff848285016130d6565b91505092915050565b6000806040838503121561321b57600080fd5b6000613229858286016130d6565b925050602061323a85828601612f87565b9150509250929050565b6000806040838503121561325757600080fd5b6000613265858286016130d6565b925050602083013567ffffffffffffffff81111561328257600080fd5b61328e85828601613080565b9150509250929050565b6132a181613fd1565b82525050565b6132b081613f41565b82525050565b6132bf81613f53565b82525050565b60006132d082613f2b565b8084526132e4816020860160208601614028565b6132ed8161405b565b602085010191505092915050565b600061330682613f20565b80845261331a816020860160208601614028565b6133238161405b565b602085010191505092915050565b60008154600181166000811461334e576001811461336e576133af565b607f600283041680865260ff1983166020870152604086019350506133af565b6002820480865260208601955061338485613f0e565b60005b828110156133a657815481890152600182019150602081019050613387565b80880195505050505b505092915050565b6133c081613fe3565b82525050565b60006133d182613f36565b8084526133e5816020860160208601614028565b6133ee8161405b565b602085010191505092915050565b6000602382527f5075626c6963204950204164647265737320697320616c726561647920696e2060208301527f75736500000000000000000000000000000000000000000000000000000000006040830152606082019050919050565b6000601582527f746f6b656e73206172652074696d656c6f636b656400000000000000000000006020830152604082019050919050565b6000602482527f7369676e6572206973206e6f742061207374616b656420636f7265206f70657260208301527f61746f72000000000000000000000000000000000000000000000000000000006040830152606082019050919050565b6000604982527f5f636f72654861736820737570706c69656420746f4574685369676e65644d6560208301527f73736167654861736820646f6573206e6f7420657175616c2076616c7565206360408301527f616c63756c6174656400000000000000000000000000000000000000000000006060830152608082019050919050565b6000602f82527f6e6f646520686173206e6f74207374616b656420696e746f207468652043686160208301527f696e706f696e74206e6574776f726b00000000000000000000000000000000006040830152606082019050919050565b6000601b82527f6e6f6465204950206164647265737320697320726571756972656400000000006020830152604082019050919050565b6000603082527f6e6f7420656c696769626c6520746f205374616b6520696e746f20746865204e60208301527f6574776f726b206173206120436f7265000000000000000000000000000000006040830152606082019050919050565b6000602882527f6d757374206265206f776e6572206f7220616e2061637469766520636f72652060208301527f6f70657261746f720000000000000000000000000000000000000000000000006040830152606082019050919050565b6000602e82527f6e6f646520646964206e6f74207374616b6520696e746f20746865206368616960208301527f6e706f696e74206e6574776f726b0000000000000000000000000000000000006040830152606082019050919050565b6000601382527f7472616e7366657246726f6d206661696c6564000000000000000000000000006020830152604082019050919050565b6000603c82527f6e6f64652068617320616c7265616479207374616b65642e20696e766f6b652060208301527f72656e65775374616b652829206d6574686f6420746f2072656e6577000000006040830152606082019050919050565b6000601b82527f636f7265204950206164647265737320697320726571756972656400000000006020830152604082019050919050565b6000602f82527f636f726520686173206e6f74207374616b656420696e746f207468652043686160208301527f696e706f696e74206e6574776f726b00000000000000000000000000000000006040830152606082019050919050565b6000603e82527f636f72652068617320616c7265616479207374616b65642e20696e766f6b652060208301527f7570646174655374616b652829206d6574686f6420746f2075706461746500006040830152606082019050919050565b6000600f82527f7472616e73666572206661696c656400000000000000000000000000000000006020830152604082019050919050565b6138e081613f7f565b82525050565b6138ef81613f89565b82525050565b600060208201905061390a60008301846132a7565b92915050565b60006020820190506139256000830184613298565b92915050565b60006060820190506139406000830186613298565b61394d60208301856132a7565b61395a60408301846138d7565b949350505050565b60006040820190506139776000830185613298565b61398460208301846138d7565b9392505050565b60006020820190506139a060008301846132b6565b92915050565b60006040820190506139bb60008301856133b7565b6139c860208301846133b7565b9392505050565b600060208201905081810360008301526139e981846133c6565b905092915050565b60006020820190508181036000830152613a0a816133fc565b9050919050565b60006020820190508181036000830152613a2a81613459565b9050919050565b60006020820190508181036000830152613a4a81613490565b9050919050565b60006020820190508181036000830152613a6a816134ed565b9050919050565b60006020820190508181036000830152613a8a81613570565b9050919050565b60006020820190508181036000830152613aaa816135cd565b9050919050565b60006020820190508181036000830152613aca81613604565b9050919050565b60006020820190508181036000830152613aea81613661565b9050919050565b60006020820190508181036000830152613b0a816136be565b9050919050565b60006020820190508181036000830152613b2a8161371b565b9050919050565b60006020820190508181036000830152613b4a81613752565b9050919050565b60006020820190508181036000830152613b6a816137af565b9050919050565b60006020820190508181036000830152613b8a816137e6565b9050919050565b60006020820190508181036000830152613baa81613843565b9050919050565b60006020820190508181036000830152613bca816138a0565b9050919050565b6000602082019050613be660008301846138d7565b92915050565b6000604082019050613c0160008301856138d7565b613c0e60208301846138d7565b9392505050565b600060a082019050613c2a60008301886138e6565b613c3760208301876132a7565b613c4460408301866132b6565b613c5160608301856138d7565b613c5e60808301846138d7565b9695505050505050565b6000608082019050613c7d60008301876138e6565b613c8a60208301866132a7565b613c9760408301856138d7565b613ca460608301846138d7565b95945050505050565b600060c082019050613cc260008301896138e6565b613ccf60208301886132b6565b613cdc60408301876132b6565b8181036060830152613cee81866132fb565b9050613cfd60808301856138d7565b613d0a60a08301846138d7565b979650505050505050565b600060a082019050613d2a60008301886138e6565b8181036020830152613d3c81876132c5565b9050613d4b60408301866132b6565b613d5860608301856138d7565b613d6560808301846138d7565b9695505050505050565b6000606082019050613d8460008301866138e6565b8181036020830152613d9681856132c5565b9050613da560408301846138d7565b949350505050565b600060a082019050613dc260008301886138e6565b8181036020830152613dd48187613331565b9050613de360408301866132b6565b613df060608301856138d7565b613dfd60808301846138d7565b9695505050505050565b6000604082019050613e1c60008301856138e6565b613e2960208301846138d7565b9392505050565b6000606082019050613e4560008301866138e6565b613e5260208301856138d7565b613e5f60408301846138d7565b949350505050565b6000604051905081810181811067ffffffffffffffff82111715613e8a57600080fd5b8060405250919050565b600067ffffffffffffffff821115613eab57600080fd5b602082029050919050565b600067ffffffffffffffff821115613ecd57600080fd5b601f19601f8301169050602081019050919050565b600067ffffffffffffffff821115613ef957600080fd5b601f19601f8301169050602081019050919050565b60008160005260206000209050919050565b600081519050919050565b600081519050919050565b600081519050919050565b6000613f4c82613f5f565b9050919050565b60008115159050919050565b600073ffffffffffffffffffffffffffffffffffffffff82169050919050565b6000819050919050565b600063ffffffff82169050919050565b6000613fa482613f5f565b9050919050565b60008115159050919050565b6000819050919050565b600063ffffffff82169050919050565b6000613fdc82613ff5565b9050919050565b6000613fee82613f7f565b9050919050565b600061400082614007565b9050919050565b600061401282613f5f565b9050919050565b82818337600083830152505050565b60005b8381101561404657808201518184015260208101905061402b565b83811115614055576000848401525b50505050565b6000601f19601f830116905091905056fea265627a7a723058203c655807abcc82f413399472daf0f2052e4f1297ffbb0bf52497dda187b2c3e66c6578706572696d656e74616cf50037",
  "source": "pragma solidity >=0.4.22 <0.6.0;\npragma experimental ABIEncoderV2;\n\nimport \"openzeppelin-solidity/contracts/ownership/Ownable.sol\";\nimport \"openzeppelin-solidity/contracts/lifecycle/Pausable.sol\";\nimport \"openzeppelin-solidity/contracts/cryptography/ECDSA.sol\";\nimport \"bytes/BytesLib.sol\";\n\nimport \"./lib/ERC20.sol\";\nimport \"./lib/SafeMath.sol\";\n\ncontract ChainpointRegistry is Ownable, Pausable {\n    using ECDSA for bytes32;\n    using BytesLib for bytes;\n    using SafeMath for uint256;\n    \n    /// @title TNT Token Contract\n    string public name = \"Chainpoint Registry\";\n    \n    /// @title TNT Token Contract\n    /// @notice Standard ERC20 Token\n    ERC20 private token;\n\n    uint256 public NODE_STAKING_AMOUNT = 500000000000; // 5000 TNT specified in grains\n    uint256 public NODE_STAKING_DURATION = 120; // 2mins specified in seconds TODO: fix for PROD\n    \n    uint256 public CORE_STAKING_AMOUNT = 2500000000000; // 25,000 TNT specified in grains\n    uint256 public CORE_STAKING_DURATION = 120; // 10mins specified in seconds TODO: fix for PROD\n\n    uint256 public stakedCoresCount = 0;\n    \n    ///\n    /// MAPPINGS\n    ///\n    /// @title Registered Chainpoint Nodes\n    /// @notice Contains all Chainpoint Nodes that have staked and are participating in the Chainpoint Network\n    /// @dev Key is ethereum account for Chainpoint Node owner\n    /// @dev Value is struct representing Node attributes\n    mapping (address => Node) public nodes;\n    \n    /// @title Registered Chainpoint Cores\n    /// @notice Contains all Chainpoint Core Operators that have staked and are running the Chainpoint Network\n    /// @dev Key is ethereum account for Chainpoint Node owner\n    /// @dev Value is struct representing Node attributes\n    mapping (address => Core) public cores;\n    \n    /// @title Registered Node IP Addresses\n    /// @notice Contains all the Public IP Addresses corresponding to Staked Nodes\n    /// @dev Key is the sum of the public IP address\n    /// @dev Value is a boolean (defaults to false) which informs whether or not the IP address is being used\n    mapping (uint32 => bool) public allocatedIps;\n\n    /// @title Whitelist of Cores eligible to Stake\n    /// @notice Contains all of the Core ETH Addresses allowed to stake into the Registry\n    /// @dev Key is the Cores ETH Address\n    /// @dev Value is a boolean (defaults to false) which informs whether or not the Core is allowed to Stake\n    mapping (address => bool) public eligibleCores;\n\n    mapping(address => mapping(address => bool)) public coreApprovalSignaturesUsed;\n    \n    ///\n    /// TYPES \n    ///\n    /// @title Chainpoint Node\n    /// @notice Contains the Node state on the Chainpoint network\n    /// @dev nodeIp is the IPV4 address of the Node\n    /// @dev rewardsAddr is the ETH Address in which rewards will be sent to\n    /// @dev amountStaked is the amount of TNT the node has staked\n    struct Node {\n      uint32 nodeIp;\n      address rewardsAddr;\n      bool isStaked;\n      uint256 amountStaked;\n      uint256 stakeLockedUntil;\n    }\n    \n    /// @title Chainpoint Core Operator\n    /// @notice Contains the Core Operator state on the Chainpoint network\n    /// @dev coreIp is the IPV4 address of the Node\n    /// @dev staked Node is actively staked\n    /// @dev isHealthy Will always be true unless a Core is acting in bad faith and is therefore being punished by the rest of the Network\n    /// @dev amountStaked is the amount of TNT the node has staked\n    /// @dev stakeLockedUntil is the epoch timestamp up to when the Node is staked into the Chainpoint Network\n    struct Core {\n      uint32 coreIp;\n      bool isStaked;\n      bool isHealthy;\n      bytes coreId;\n      uint256 amountStaked;\n      uint256 stakeLockedUntil;\n    }\n    \n    ///\n    /// MODIFIERS\n    ///\n    /// @notice only Staked Core Operators or Owner can call, otherwise throw\n    modifier onlyOwnerOrCoreOperator() {\n        require(msg.sender == owner() || cores[msg.sender].isStaked, \"must be owner or an active core operator\");\n        _;\n    }\n\n    /// @notice only Core Operators can call, otherwise throw\n    modifier onlyCoreOperator() {\n        require(cores[msg.sender].isStaked, \"must be core operator\");\n        _;\n    }\n    \n    /// @notice Constructor sets the ERC Token contract and initial values for network fees\n    /// @param _token is the TNT Token contract address (must be ERC20)\n    constructor (address _token) public {\n        require(_token != address(0), \"token address cannot be 0x0\");\n        token = ERC20(_token);\n    }\n    \n    ///\n    /// EVENTS \n    ///\n    /// @notice emitted on successful Node staking\n    /// @param _sender Node Operator staking a node\n    /// @param _amountStaked is the total amount of TNT the Node has staked\n    /// @param _duration is the epoch timestamp up to when the Node is staked into the Chainpoint Network\n    event NodeStaked(\n        address indexed _sender,\n        uint32 _nodeIp,\n        address _rewardsAddr,\n        uint256 _amountStaked,\n        uint256 _duration\n    );\n    \n    /// @notice emitted on successful update of a Node's stake\n    /// @param _sender Node Operator staking a node\n    /// @param _nodeIp is the Node's IP Address\n    /// @param _amountStaked is the amount the Node has staked\n    /// @param _duration is the epoch timestamp up to when the Node is staked into the Chainpoint Network\n    event NodeStakeUpdated(\n        address indexed _sender,\n        uint32 _nodeIp,\n        uint256 _amountStaked,\n        uint256 _duration\n    );\n\n    /// @notice emitted on successful un-staking of a Node\n    /// @param _sender Node Operator staking a node\n    /// @param _nodeIp is the Node's IP Address\n    /// @param _amountStaked is the amount the Node has staked\n    event NodeUnStaked(\n        address indexed _sender,\n        uint32 _nodeIp,\n        uint256 _amountStaked\n    );\n\n    /// @notice emitted on successful Node staking\n    /// @param _sender Core Operator staking a node\n    /// @param _coreIp IP address of Core Node\n    /// @param _isHealthy Is Core Operator currently Active\n    /// @param _amountStaked is the total amount of TNT the Node has staked\n    /// @param _duration is the epoch timestamp up to when the Node is staked into the Chainpoint Network\n    event CoreStaked(\n        address indexed _sender,\n        uint32 _coreIp,\n        bytes _coreId,\n        bool _isHealthy,\n        uint256 _amountStaked,\n        uint256 _duration\n    );\n    \n    /// @notice emitted on successful Node staking\n    /// @param _sender Core Operator staking a node\n    /// @param _coreIp IP address of Core Node\n    /// @param _isHealthy Is Core Operator currently Active\n    /// @param _amountStaked is the total amount of TNT the Node has staked\n    /// @param _duration is the epoch timestamp up to when the Node is staked into the Chainpoint Network\n    event CoreStakeUpdated(\n        address indexed _sender,\n        uint32 _coreIp,\n        bytes coreId,\n        bool _isHealthy,\n        uint256 _amountStaked,\n        uint256 _duration\n    );\n\n    /// @notice emitted on successful un-staking of a Core\n    /// @param _sender Core Operator whom is un-staking a Core\n    /// @param _coreIp is the Cores's IP Address\n    /// @param _amountStaked is the amount the Core has staked\n    event CoreUnStaked(\n        address indexed _sender,\n        uint32 _coreIp,\n        bytes coreId,\n        uint256 _amountStaked\n    );\n\n    event CoreApproval(\n        address indexed _sender,\n        address indexed _approvedCore,\n        uint256 _majority,\n        uint256 _recoveredSigs\n    );\n    \n    ///\n    /// Chainpoint Node staking\n    ///\n    /// @notice Allows a Node to stake into the Chainpoint Network\n    /// @param _nodeIp is the IPV4 address of the Node\n    /// @param _rewardsAddr is ETH Address in which rewards will be sent to\n    /// @return true if successful, otherwise false\n    function stake(uint32 _nodeIp, address _rewardsAddr) public whenNotPaused returns (bool) {\n        require(_addNodeToRegistry(_nodeIp, _rewardsAddr), \"node did not stake into the chainpoint network\");\n        \n        emit NodeStaked(\n            msg.sender,\n            _nodeIp,\n            _rewardsAddr,\n            NODE_STAKING_AMOUNT,\n            NODE_STAKING_DURATION\n        );\n        \n        require(token.transferFrom(msg.sender, address(this), NODE_STAKING_AMOUNT), \"transferFrom failed\");\n\n        return true;\n    }\n    \n    ///\n    /// Chainpoint Core staking overloaded function definitions\n    ///\n    /// @notice Allows a Node to stake into the Chainpoint Network\n    /// @param _coreIp is the IPV4 address of the Node\n    /// @return true if successful, otherwise false\n    function stakeCore(uint32 _coreIp, bytes memory _coreId) public whenNotPaused returns (bool) {\n        require(eligibleCores[msg.sender] == true, \"not eligible to Stake into the Network as a Core\");\n        require(_addCoreToRegistry(_coreIp, _coreId), \"node did not stake into the chainpoint network\");\n        \n        require(token.transferFrom(msg.sender, address(this), CORE_STAKING_AMOUNT), \"transferFrom failed\");\n\n        emit CoreStaked(\n            msg.sender,\n            _coreIp,\n            _coreId,\n            true,\n            CORE_STAKING_AMOUNT,\n            CORE_STAKING_DURATION\n        );\n\n        return true;\n    }\n    \n    ///\n    /// Update Node Information\n    ///\n    /// @notice Allows a Node renew their stake into the Chainpoint Network\n    /// @param _nodeIp is the new IP address of the staked Chainpoint Node\n    /// @return true if successful, otherwise false\n    /// @dev msg.sender is expected to be the Node Operator\n    /// @dev tokens will be deducted from the Node Operator and added to the balance of the ChainpointRegistry Address\n    /// @dev owner has ability to pause this operation\n    function updateStake(uint32 _nodeIp) public whenNotPaused returns (bool) {\n        require(nodes[msg.sender].isStaked, \"node has not staked into the Chainpoint network\");\n        require(_nodeIp != 0, \"node IP address is required\");\n        \n        Node storage n = nodes[msg.sender];\n        if (n.nodeIp != _nodeIp) {\n            require(allocatedIps[_nodeIp] == false, \"Public IP Address is already in use\");\n            n.nodeIp = _nodeIp;\n\n            emit NodeStakeUpdated(\n                msg.sender,\n                n.nodeIp,\n                n.amountStaked,\n                n.stakeLockedUntil\n            );\n        }\n\n        return true;\n    }\n    \n    ///\n    /// Update Core Information\n    ///\n    /// @notice Allows a Core to update their metadata\n    /// @param _coreIp is the new IP address of the staked Core Operator\n    /// @return true if successful, otherwise false\n    /// @dev msg.sender is expected to be the Node Operator\n    /// @dev tokens will be deducted from the Node Operator and added to the balance of the ChainpointRegistry Address\n    /// @dev owner has ability to pause this operation\n    function updateStakeCore(uint32 _coreIp) public whenNotPaused returns (bool) {\n        require(cores[msg.sender].isStaked, \"core has not staked into the Chainpoint network\");\n        require(_coreIp != 0, \"core IP address is required\");\n        \n        Core storage c = cores[msg.sender];\n        // If updating public IP Address, ensure that it is unique\n        if (c.coreIp != _coreIp) {\n            require(allocatedIps[_coreIp] == false, \"Public IP Address is already in use\");\n            c.coreIp = _coreIp;\n\n            emit CoreStakeUpdated(\n                msg.sender,\n                c.coreIp,\n                c.coreId,\n                c.isHealthy,\n                c.amountStaked,\n                c.stakeLockedUntil\n            );\n        }\n\n        return true;\n    }\n    \n    ///\n    /// Un-Stake a Node, tokens must no longer be timelocked\n    ///\n    /// @notice Allows a Node un-stake from the Chainpoint Network given that stakeLockedUntil duration has elapsed\n    /// @return true if successful, otherwise false\n    /// @dev msg.sender is expected to be the Node Operator\n    /// @dev tokens that were previously timelocked will be transferred back to the Node Operator\n    /// @dev owner has ability to pause this operation\n    function unStake() public whenNotPaused returns (bool) {\n        require(nodes[msg.sender].isStaked == true, \"node has not staked into the Chainpoint network\");\n        require(now >= nodes[msg.sender].stakeLockedUntil, \"tokens are timelocked\");\n\n        Node storage n = nodes[msg.sender];\n        uint32 nodeIp = n.nodeIp;\n        uint256 amountStaked = n.amountStaked;\n\n        delete allocatedIps[nodeIp];\n        delete nodes[msg.sender];\n        \n        require(token.transfer(msg.sender, amountStaked), \"transfer failed\");\n\n        emit NodeUnStaked(\n            msg.sender,\n            nodeIp,\n            amountStaked\n        );\n        \n        return true;\n    }\n    \n    ///\n    /// Un-Stake a Core, tokens must no longer be timelocked\n    ///\n    /// @notice Allows a Core to un-stake from the Chainpoint Network given that stakeLockedUntil duration has elapsed\n    /// @return true if successful, otherwise false\n    /// @dev msg.sender is expected to be the Node Operator\n    /// @dev tokens that were previously timelocked will be transferred back to the Core Operator\n    /// @dev owner has ability to pause this operation\n    function unStakeCore() public whenNotPaused returns (bool) {\n        require(cores[msg.sender].isStaked, \"core has not staked into the Chainpoint network\");\n        require(now >= cores[msg.sender].stakeLockedUntil, \"tokens are timelocked\");\n\n        Core storage c = cores[msg.sender];\n        uint32 coreIp = c.coreIp;\n        bytes memory coreId = c.coreId;\n        uint256 amountStaked = c.amountStaked;\n        \n        delete allocatedIps[coreIp];\n        delete cores[msg.sender];\n        stakedCoresCount = stakedCoresCount.sub(1);\n        \n        require(token.transfer(msg.sender, amountStaked), \"transfer failed\");\n        \n        emit CoreUnStaked(\n            msg.sender,\n            coreIp,\n            coreId,\n            amountStaked\n        );\n\n        return true;\n    }\n\n    function approveCoreStaking(address _core, bytes32 _coreHash, bytes[126] memory sigs) public onlyOwnerOrCoreOperator returns (bool) {\n        bytes memory btsNull = new bytes(0);\n        // Allow specified Core to Stake into the Registry at a future point in time\n        if(msg.sender == owner()) {\n            eligibleCores[_core] = true;\n            emit CoreApproval(msg.sender, _core, 0, 0);\n        } else {\n            // Validate parameters provided\n            bytes32 calculatedCoreHash = keccak256(abi.encodePacked(_core));\n            require(calculatedCoreHash.toEthSignedMessageHash() == _coreHash, \"_coreHash supplied toEthSignedMessageHash does not equal value calculated\");\n\n            uint256 recoveredSigs = 0;\n            // TODO: hardcoded for now\n            uint256 majority = 1;\n\n            // Recover Signer addresses and verify they are staked Core Operators\n            for(uint8 i=0; i < sigs.length; i++) {\n                if(sigs[i].equal(btsNull))\n                    break;\n\n                address recoveredAddress = _coreHash.recover(sigs[i]);\n                require(isHealthyCore(recoveredAddress), \"signer is not a staked core operator\");\n\n                if(coreApprovalSignaturesUsed[_core][recoveredAddress] == false) {\n                    coreApprovalSignaturesUsed[_core][recoveredAddress] = true;\n\n                    recoveredSigs = recoveredSigs.add(1);\n                }\n            }\n            if(recoveredSigs >= majority) {\n                eligibleCores[_core] = true;\n                emit CoreApproval(msg.sender, _core, majority, recoveredSigs);\n            }\n        }\n\n        return true;\n    }\n    \n    ///\n    /// Is Core healthy?\n    ///\n    /// @notice Returns whether or not a Core is healthy\n    /// @return bool if successful, otherwise false\n    /// @dev msg.sender is expected to be the Node Operator\n    /// @dev owner has ability to pause this operation\n    function isHealthyCore(address _address) public view returns (bool) {\n        return cores[_address].isHealthy;\n    }\n    \n    ///\n    /// Add node to registry \n    ///\n    /// @notice Adds a Node to the staking registry\n    /// @param _nodeIp is the IPV4 address of the Node\n    /// @param _rewardsAddr is the ETH Address in which rewards will be sent to\n    /// @return Node\n    /// @dev msg.sender is expected to be the Node Operator\n    /// @dev tokens will be deducted from the Node Operator and added to the balance of the ChainpointRegistry Address\n    /// @dev owner has ability to pause this operation\n    function _addNodeToRegistry(uint32 _nodeIp, address _rewardsAddr) internal returns (bool) {\n        require(!nodes[msg.sender].isStaked, \"node has already staked. invoke renewStake() method to renew\");\n        require(_nodeIp != 0 && allocatedIps[_nodeIp] == false, \"node IP address is required\");\n        \n        uint256 stakeLockedUntil = now + NODE_STAKING_DURATION;\n        \n        Node storage n = nodes[msg.sender];\n        \n        n.nodeIp = _nodeIp;\n        n.rewardsAddr = _rewardsAddr;\n        n.isStaked = true;\n        n.amountStaked = NODE_STAKING_AMOUNT;\n        n.stakeLockedUntil = stakeLockedUntil;\n\n        // Allocate IP Address to ensure uniqueness\n        allocatedIps[_nodeIp] = true;\n        \n        return true;\n    }\n    \n    ///\n    /// Add Core to Registry \n    ///\n    /// @notice Adds a Core to the staking registry\n    /// @param _coreIp is the IPV4 address of the Core\n    /// @return Core\n    /// @dev msg.sender is expected to be the Core Operator\n    /// @dev tokens will be deducted from the Core Operator and added to the balance of the ChainpointRegistry Address\n    /// @dev owner has ability to pause this operation indirectly\n    function _addCoreToRegistry(uint32 _coreIp, bytes memory _coreId) internal returns (bool) {\n        require(!cores[msg.sender].isStaked, \"core has already staked. invoke updateStake() method to update\");\n        require(_coreIp != 0 && allocatedIps[_coreIp] == false, \"node IP address is required\");\n        \n        uint256 stakeLockedUntil = now + CORE_STAKING_DURATION;\n        \n        Core storage c = cores[msg.sender];\n        \n        c.coreIp = _coreIp;\n        c.isStaked = true;\n        c.isHealthy = true;\n        c.coreId = _coreId;\n        c.amountStaked = CORE_STAKING_AMOUNT;\n        c.stakeLockedUntil = stakeLockedUntil;\n\n        // Allocate IP to ensure uniqueness\n        allocatedIps[_coreIp] = true;\n        // Core has Staked, remove from eligibleCores mapping\n        eligibleCores[msg.sender] = false;\n        // Core has Staked, increment stakedCoresCount\n        stakedCoresCount = stakedCoresCount.add(1);\n        \n        return true;\n    }\n}\n",
  "sourcePath": "/var/lib/go-agent/pipelines/smart-contracts/contracts/ChainpointRegistry.sol",
  "compiler": {
    "name": "solc",
    "version": "0.5.0+commit.1d4f565a.Emscripten.clang"
  },
  "schemaVersion": "3.0.2",
  "updatedAt": "2019-07-16T02:46:27.531Z",
  "devdoc": {
    "methods": {
      "constructor": {
        "params": {
          "_token": "is the TNT Token contract address (must be ERC20)"
        }
      },
      "isHealthyCore(address)": {
        "details": "msg.sender is expected to be the Node Operatorowner has ability to pause this operation",
        "return": "bool if successful, otherwise false"
      },
      "isOwner()": {
        "return": "true if `msg.sender` is the owner of the contract."
      },
      "owner()": {
        "return": "the address of the owner."
      },
      "pause()": {
        "details": "called by the owner to pause, triggers stopped state"
      },
      "paused()": {
        "return": "true if the contract is paused, false otherwise."
      },
      "renounceOwnership()": {
        "details": "Allows the current owner to relinquish control of the contract."
      },
      "stake(uint32,address)": {
        "params": {
          "_nodeIp": "is the IPV4 address of the Node",
          "_rewardsAddr": "is ETH Address in which rewards will be sent to"
        },
        "return": "true if successful, otherwise false"
      },
      "stakeCore(uint32,bytes)": {
        "params": {
          "_coreIp": "is the IPV4 address of the Node"
        },
        "return": "true if successful, otherwise false"
      },
      "transferOwnership(address)": {
        "details": "Allows the current owner to transfer control of the contract to a newOwner.",
        "params": {
          "newOwner": "The address to transfer ownership to."
        }
      },
      "unStake()": {
        "details": "msg.sender is expected to be the Node Operatortokens that were previously timelocked will be transferred back to the Node Operatorowner has ability to pause this operation",
        "return": "true if successful, otherwise false"
      },
      "unStakeCore()": {
        "details": "msg.sender is expected to be the Node Operatortokens that were previously timelocked will be transferred back to the Core Operatorowner has ability to pause this operation",
        "return": "true if successful, otherwise false"
      },
      "unpause()": {
        "details": "called by the owner to unpause, returns to normal state"
      },
      "updateStake(uint32)": {
        "details": "msg.sender is expected to be the Node Operatortokens will be deducted from the Node Operator and added to the balance of the ChainpointRegistry Addressowner has ability to pause this operation",
        "params": {
          "_nodeIp": "is the new IP address of the staked Chainpoint Node"
        },
        "return": "true if successful, otherwise false"
      },
      "updateStakeCore(uint32)": {
        "details": "msg.sender is expected to be the Node Operatortokens will be deducted from the Node Operator and added to the balance of the ChainpointRegistry Addressowner has ability to pause this operation",
        "params": {
          "_coreIp": "is the new IP address of the staked Core Operator"
        },
        "return": "true if successful, otherwise false"
      }
    }
  },
  "userdoc": {
    "methods": {
      "constructor": "Constructor sets the ERC Token contract and initial values for network fees",
      "isHealthyCore(address)": {
        "notice": " Is Core healthy? Returns whether or not a Core is healthy"
      },
      "renounceOwnership()": {
        "notice": "Renouncing to ownership will leave the contract without an owner. It will not be possible to call the functions with the `onlyOwner` modifier anymore."
      },
      "stake(uint32,address)": {
        "notice": " Chainpoint Node staking Allows a Node to stake into the Chainpoint Network"
      },
      "stakeCore(uint32,bytes)": {
        "notice": " Chainpoint Core staking overloaded function definitions Allows a Node to stake into the Chainpoint Network"
      },
      "unStake()": {
        "notice": " Un-Stake a Node, tokens must no longer be timelocked Allows a Node un-stake from the Chainpoint Network given that stakeLockedUntil duration has elapsed"
      },
      "unStakeCore()": {
        "notice": " Un-Stake a Core, tokens must no longer be timelocked Allows a Core to un-stake from the Chainpoint Network given that stakeLockedUntil duration has elapsed"
      },
      "updateStake(uint32)": {
        "notice": " Update Node Information Allows a Node renew their stake into the Chainpoint Network"
      },
      "updateStakeCore(uint32)": {
        "notice": " Update Core Information Allows a Core to update their metadata"
      }
    }
  }
}